:020000041000EA
:1004000000C00E08EB0400100D00000049050010AC
:1004100000000000000000000000000000000000DC
:100420000000000000000000000000004505001072
:100430000000000000000000450500104505001008
:100440004505001045050010450500104505001044
:100450004505001045050010450500104505001034
:100460004505001045050010450500104505001024
:100470004505001045050010450500104505001014
:1004800010B5064C2378002B07D1054B002B02D06A
:10049000044800E000BF0123237010BD90040E0843
:1004A0000000000010970010044B10B5002B03D083
:1004B0000349044800E000BF10BDC0460000000032
:1004C00094040E08109700100230800803D0013009
:1004D0000238FCD1C046C0467047EFF3108072B6B8
:1004E000704780F3108870477047FFF7FDFF72B6C2
:1004F0000E4C0F4DAC4209DA21686268A368043BD8
:1005000002DBC858D050FAE70C34F3E709490A4A2D
:100510000020521A02DD043A8850FCDC07480849E2
:100520000860BFF34F8F07F049F8FEE71C970010F3
:100530003497001090040E08C00F0E0800000E083B
:1005400008ED00E0FEE7FEE700B504207146084232
:1005500002D0EFF3098002E0EFF30880043006F0E8
:10056000F3F8FEE70200093A03000120042A03D948
:10057000203B18004342584170470000F0B5002767
:1005800015003C0089B003930E9B02901B0CDBB25C
:1005900004930E9B00911B0ADBB206930E9B019005
:1005A000DBB20793019B059301330193059B1E78F2
:1005B000002E08D0009B002B23DB029A019B9B1A84
:1005C000009A93421DDD0E9BDBB20493002B76D084
:1005D0009E4200D0BAE0009B002B06DB029A019BF2
:1005E0009B1A009A934200DDB0E0059B019A02330A
:1005F0001678022F00D16CE05FDC60D001246442E9
:1006000064E03000FFF7AEFF0028CBD1079BB34278
:10061000D9D031004F4808F01DFC031E07D1049BC0
:10062000B3420BD0069BB342E8D14A4B3F33032F72
:10063000B8D8380007F0B0F805102234454B3E33E7
:10064000F5E7002D06D0039A9442D7D241481B1AF1
:100650009B002B550127A5E7621C002D0BD00399A9
:100660008A42CBD23B4829191B1A285D1E11304300
:100670001B0108704B701400022793E7621C002DC9
:100680000BD003998A42B9D2324829191B1A285D26
:100690009E1030439B0108704B701400032781E7C4
:1006A000002D07D0039A9442A8D22A481B1A285D2D
:1006B00003432B550027013474E7032F24D0039BF9
:1006C0009C429BD2002D01D000232B55200009B065
:1006D000F0BD1F00002E00D190E7009B002B24DB13
:1006E000029B009AFB1A93421FDD049BB34200D089
:1006F00084E7009B002B05DD029B009AFB1A9342C6
:1007000000DD7BE73E787B1C1F00002E07D0009B9E
:10071000002B12DB029B009AFB1A93420DDD002D89
:10072000CDD02B5D002BCAD068E73000FFF71AFF51
:100730000028DAD03E780137CCE73000FFF712FF0F
:10074000002800D15AE73E780137DEE7002FB6D007
:1007500054E7C046B890001000230100180010B5FF
:10076000CA5C1400303C092C09D8303810185A1CC7
:10077000032B03D013000001042AF1D110BD140093
:10078000413C052C01D83738F0E71400613C052CBA
:1007900001D85738EAE70020F0E70000F0B50B7801
:1007A00085B017000390222B17D100234E1C019611
:1007B000019A1278222A00D1B7E0002A0ED05C2AD2
:1007C00007D1019A5278002A08D0019A01330132E8
:1007D0000192019A01320192EAE71160002012E0D1
:1007E00033785C2B11D02B7001360135019B9E4272
:1007F000F6D30023039A2B700833D36013000198BB
:10080000029A01301A6105B0F0BD707875280AD8D7
:100810006D280ED8622819D014D82F2822D05C2831
:1008200020D022281ED0474B02981B683E60984774
:10083000D4E76E380728F6D806F0A4FF0EF5F5F5D4
:1008400010F512166628EED10C2300E008232B7059
:1008500002230135F618C9E70A23F8E70D23F6E766
:100860000923F4E72870F3E7019B9B1B052BDADDD6
:10087000B01CFFF771FF8022334B0400C318D20075
:100880009342D0D30028CED08022304BD200C31860
:10089000934225D2019AB31DD31A052BC3DDB37938
:1008A0005C2BC0D1F379752BBDD130000830FFF738
:1008B00053FF8022244BD200C3189342B3D2244B5F
:1008C000A4021C4083059B0D1C4380235B02E4189B
:1008D0000C233F221440BF3A1443EC70843212E0E0
:1008E0007F280DD980231B01984216D380235B02F9
:1008F00098420AD388235B03984294D20623E8E700
:10090000062301222870AD18A4E73F231C40BF3BFB
:100910001C430322AC708633F5E73F231C40BF3BEA
:100920001C4302226C708633EDE7019A501A0422B0
:10093000D31AC018074B1B689847051E029000D0B9
:1009400054E74BE780000E080024FFFF0028FFFF5C
:1009500000FC0F0084000E08002803D00378013B40
:100960001F2B00D970470130F6E70000064B10B589
:1009700028201B689847041E03D02822002108F075
:100980006CF9200010BDC04684000E080849094AD1
:10099000002803D1084B0B60084B07E00368002BCD
:1009A00000D1054B0B604368002BF5D013607047F6
:1009B00084000E0880000E08218C0010358C001079
:1009C000F8B5802604007600002C00D1F8BDE3685D
:1009D0002768104D334205D1A068002811D1206945
:1009E000002814D18022E3689200134204D1206AC7
:1009F000002801D02B68984720002B6898473C00BE
:100A0000E2E7FFF7DDFFE3683342E8D0EAE72B686F
:100A10009847E7E780000E08F0B505000F001600C4
:100A200085B0002901D1002013E0042238006B4971
:100A300008F030FA002803D10223EB60381D08E0EB
:100A400005223800664908F025FA002803D1E8603D
:100A5000781D05B0F0BD04223800624908F01AFA8A
:100A6000002806D101230122EB600023AA61EB617B
:100A7000E4E73B78222B05D1320039002800FFF74C
:100A80008DFEE6E72D2B03D01A00303A092A24D830
:100A900000240A22380003A9039408F0BBFA0300DB
:100AA00003988742BFD05A1C0AD14F4A914211D1B4
:100AB00001224D4B5242AA61EB610423EB60C8E76F
:100AC000002B07D180221206914203D180230022FD
:100AD0001B06F0E7AB61E961EFE75B2B31D1781CD6
:100AE000FFF73AFF037804005D2B22D00027013C7A
:100AF00000970197FFF73AFF009B071E68D0002B75
:100B000015D0019B18604360601CFFF725FF320081
:100B100001003800FFF780FFFFF71EFF041E3BD0E7
:100B200003782C2BE5D05D2B05D0346034E00090A9
:100B3000EAE7002300931023EB60009B601CAB608E
:100B400087E77B2B48D1781CFFF706FF037804006A
:100B50007D2B3AD00027013C00970197FFF706FF55
:100B6000009B071E34D0002B1AD0019B18604360F5
:100B7000601CFFF7F1FE320001003800FFF70EFEA7
:100B8000FFF7EAFE002807D03B693B6200233B6188
:100B900003783A2B06D030600098FFF711FF42E748
:100BA0000090E5E70130FFF7D7FE32000100380082
:100BB000FFF732FFFFF7D0FE041EEDD003782C2B99
:100BC000CBD07D2BB1D12023B6E700230093FAE7E9
:100BD000002B00D127E7DFE7376024E7F79000100C
:100BE000FC90001002910010FFFFFF7FF7B504009A
:100BF0000E000F1E019200D1144FFFF7B7FE002325
:100C000005003B6098420DD02000FFF7A5FE3A009A
:100C100001002800FFF700FF041E05D12800FFF7A0
:100C2000CFFE00252800FEBD019B002B0AD0FFF758
:100C300093FE03780400002B04D02800FFF7C0FEC9
:100C40003C60EEE7002EEDD03460EBE7AC040E081C
:100C5000002210B51100FFF7C9FF10BD802233B587
:100C6000450AFFB06D02040029006846920007F0B3
:100C7000EBFF01236A46E405E40D6946280013559D
:100C800001F0BEF97FB036BD10B518390B5C0A18FB
:100C90000020012B02D01000FFF7E0FF10BD000084
:100CA000F0B58DB01D0015AB1B780E00039300232B
:100CB000170005A906AA0593069300F044F9041E3F
:100CC0004BD12F4B3200009306993B000598FFF75C
:100CD00055FC002851DD0C22210009A807F0BDFFBA
:100CE000022008AA07A9FF300794089400F088FFA3
:100CF000002802D0652464422FE02900079800F004
:100D000051FE0028F6D1033008AA07A9FF3000F0F1
:100D100077FF0028EED11299079800F0E3FD041E3A
:100D20001BD1300009A900F026F9041E15D1129933
:100D30000A9800F033FD041E0FD12900039A0B9886
:100D400000F038F9041E05D1139B002B08D1149B29
:100D5000002B0DD10998FFF733FE20000DB0F0BD38
:100D60001399099800F0FEFB0028F0D00400F1E789
:100D70001499099800F0C4FCF8E71424BBE7C046B6
:100D8000005F2D00F0B58BB0059310AB049204CB3F
:100D90000F001B7806920793002309AA08A90600F2
:100DA0000893099300F0CFF8041E23D1099800F0AE
:100DB0006DF8040007F034FF051E21D0124B02002D
:100DC0000093099923000898FFF7D8FB002814DD49
:100DD000079B22000393069B29000293059B30008A
:100DE0000193049B00933B00FFF75AFF0400280087
:100DF00007F020FF20000BB0F0BD14246442F6E79A
:100E000064246442F6E7C046005F2D00010010B57F
:100E100004000B4808F02CF8002398420DD0210064
:100E2000084808F025F80123002806D021000648CC
:100E300008F01EF8434258414300180010BDC04658
:100E40003F9200104892001050920010010010B51F
:100E500004000B4808F00CF8002398420DD0210044
:100E6000084808F005F80123002806D021000648AC
:100E700007F0FEFF434258414300180010BDC04632
:100E800058920010619200106D9200100323584395
:100E90008008984304307047F8B50D0000281FD033
:100EA00000291DD0C3680860202B1CD184680F4F17
:100EB000002C01D12000F8BD266A002E06D031009A
:100EC0000B4807F0D5FF002802D16C602468EFE7DB
:100ED0003100380007F0CCFF0028F7D1AC60F5E70F
:100EE00001204042E7E70220FBE7C046789200106D
:100EF00072920010F0B506000C00002591B001AF11
:100F0000002C02D1200011B0F0BD216A002904D0CC
:100F1000300007F0ADFF0028F4D0A368002B06D006
:100F20000E2D0ED8AA00D45101351C00E8E7246824
:100F3000002CEAD1002DE5D0013DAB00DB591C6847
:100F4000F6E70024DEE7F8B50D002E21160007F0C5
:100F500081FF041E0CD0471C2E21380007F07AFFB9
:100F6000002805D0001B0138306000202F60F8BD3C
:100F700016204042FBE770B5050000200C00FFF78B
:100F800005FD2800FFF764FE002803D02100FFF7CD
:100F900083FF70BD05204042FBE7020004230020D0
:100FA0000130002901D19A4203D95B001D28F7D1F5
:100FB00002307047F0B50F0087B00100C2480592BB
:100FC000FFF798FF002800D187E283680093019320
:100FD00000231E0004930393019B002B71D1009BFF
:100FE000DB680193202B00D078E2009D2900B748F0
:100FF000FFF780FF041E00D1EBE08369059ADBB2A6
:10100000934200D0E5E00100B148FFF773FF0028EC
:1010100000D1D8E083693B702100AE48FFF76AFF3A
:101020001423002800D083697B602100AA48FFF7C1
:1010300061FF0123002803D0C3685A1E9341DBB22D
:101040002100A6483B72FFF755FF002800D1BDE004
:101050008369FB6000232100A1487B76FFF74AFFEC
:10106000002807D001699F4807F002FF002801D13E
:1010700001237B763B007A7E49331A70002E00D024
:101080002CE2009D29009148FFF734FF002800D191
:10109000A4E083693A78DBB29A4200D09EE029004E
:1010A0009148FFF727FF0123041E019300D19CE024
:1010B00082692F33541E6343FB181A76022301936F
:1010C00093E001998948FFF715FF002802D0856851
:1010D000002D03D1019B1B6801937DE72900844803
:1010E000FFF708FF00284BD0002403690293814AD0
:1010F000A3009958029807F0BBFE002800D1F0E148
:101100000134042CF3D100247B4AA300995802989F
:1011100007F0AEFE061E05D00134172CF4D10526CB
:10112000183C764229007548FFF7E4FE002801D0FC
:101130008369049329007248FFF7DCFE002804D07D
:10114000C1698069FFF729FF0390631C18D0039BD6
:10115000002B15DDA9226300FB1852009A5C012ABE
:1011600004D1220004990E32D200D1515422FF3210
:101170009B5C012B04D10E34039BE4003C1963609B
:101180002D68A5E75F49029807F072FE0028F7D1A5
:1011900029005A48FFF7AEFE002806D0A2235B00C4
:1011A000FB5C012B01D18369BB6629005448FFF722
:1011B000A1FE0028E4D04623FF33FB5C012BDFD1E6
:1011C0008369FB66DCE70126764225E7FA231B01EB
:1011D0003FE72D68002D00D008E74FE72D68002D70
:1011E00000D04FE701232C000193002D00D095E0A3
:1011F00029004548FFF77EFE002800D0FCE02900CA
:101200004248FFF777FE00280ED00D236343FB18FA
:101210002A33FF331B78012B06D1C2682F33511EAE
:101220008A416343FB185A7029003948FFF762FE70
:1012300000280ED00D236343FB182C33FF331B789B
:10124000012B06D1C2682F33511E8A416343FB181C
:101250001A7429002F48FFF74DFE00280CD00D23EB
:101260006343FB182C33FF331B78012B04D12F333E
:1012700063438269FB189A7429002748FFF73AFEF6
:10128000002800D1C8E0C368102B00D0C4E0302291
:101290008168380062432F301300801823225242A5
:1012A00062432C330632FB18FF32002900D1B3E031
:1012B0009E5C012E01D18E691E700133834200D1E4
:1012C000AAE00968F1E7C046589200106493001044
:1012D000E3920010EA920010F2920010FD920010CA
:1012E00009930010169300101B930010C492001075
:1012F00085920010E4000E0888000E08CE920010BF
:10130000D6920010DB920010279300107D920010FF
:101310003E93001046930010559300102900834817
:10132000FFF7E8FD002800D162E78668002E00D1B3
:101330005EE731007E48FFF7DDFD00282DD0036910
:101340007C491800029307F093FD002827D1310053
:101350007948FFF7CFFD00280CD00D236343FB181D
:101360002E33FF331B78012B04D12F336343826963
:10137000FB18DA6131007148FFF7BCFD00280CD082
:101380000D236343FB182F33FF331B78012B04D14C
:101390002F3363438269FB181A623668C6E76849CF
:1013A000029807F065FD0028F7D131006248FFF789
:1013B000A1FD00280CD00D236343FB183033FF330D
:1013C0001B78012B04D12F3363438269FB185A62C7
:1013D00031005A48FFF78EFD0028DED00D2363430D
:1013E000FB183033FF331B78012BD6D12F336343E7
:1013F0008269FB189A62D0E70D236343FB182D33F3
:10140000FF331B78012B00D0F9E62F336343826949
:10141000FB18D2B25A61F2E629004A48FFF76AFD8A
:10142000031E01D08369DBB230226243BA18937085
:1014300029004548FFF75EFD0123002805D0C26959
:10144000836913435A1E9341DBB230226243BA18B8
:101450005374002C1DD129003C48FFF74BFD142389
:10146000002800D083697B6329003948FFF742FDDB
:10147000031E03D0C3685A1E9341DBB23A003832D0
:10148000290034481370FFF735FD00281ED083690A
:10149000FB63019B022B20D1009D29002E48FFF702
:1014A00029FD002815D08269D3B2022B11D1302634
:1014B000541E6643BA19290028481376FFF71AFD0F
:1014C000002801D08369F3550123F8E5FA231B01B5
:1014D000DEE72D68002DE0D1F6E70026300007B0EA
:1014E000F0BD1F49029807F0C3FC002800D049E670
:1014F00029001148FFF7FEFC002806D0A1235B005D
:10150000FB5C012B01D183693B6629000B48FFF787
:10151000F1FC002800D133E64423FF33FB5C012BB0
:1015200000D02DE683697B662AE6C046C49200108F
:101530008592001031930010CE920010D6920010C8
:10154000369300105F93001067930010EA9200102A
:10155000F2920010FD9200101B9300106493001093
:101560007293001070B5514BBAB00C0002930B1D72
:1015700004934F4B0C34059301230A944D4C0A00FD
:101580000B94CC180D944C4C08320E940C00103473
:1015900010944A4C079211940C0014341394484C44
:1015A000484A14940C0018341694474C002517949C
:1015B0000C00089202221C340191069309920C93AC
:1015C0001293159303950F95189319943F4C1B9301
:1015D0001A940C0020341C943D4C1E921D940C0057
:1015E00024341F943B4C219220940C0028342294E4
:1015F000394C249323940C002C342594374C279396
:1016000026948C182894364C30922994CC1C2B9418
:10161000344C2A952C940C0030342E94324C2D9559
:101620002F940C003434319433920A0038323492BF
:101630002E4A3C3135922E4C2E4A379101002E48CD
:101640003294369338923993FFF754FC0600A8423F
:101650001ED08368AB421BD001AC31006068FFF73D
:1016600049FC002810D0C368042B0DD1A368012BBE
:1016700011D0022B13D0002B06D1C269836913430A
:101680005A1E93412268137001350C34132DE4D196
:1016900000203AB070BD236882691A60F4E783695C
:1016A00016492268DB015B181360EDE78393001095
:1016B00090930010A8930010B5930010BF930010F2
:1016C000C99300109D930010D1930010D89300107F
:1016D000E6930010F0930010FB93001007940010A5
:1016E000149400101E9400102B94001040940010CD
:1016F000359400104C9400105994001000003140B3
:10170000F0B5224B87B003AA0E0032CB32C20100E3
:101710001F48FFF7EFFB051E0BD08368002B08D096
:1017200001001C48FFF7E6FB002304000193002C96
:1017300002D1002007B0F0BDA4681748A168FFF7E8
:10174000D9FB3700002802D0C368042B0DD0019BC1
:10175000022BECD00133019303AA9B002900D0583F
:10176000FFF7C8FB84360400E1E78369321D3B6064
:10177000036824689B6921007B60D36F06480133AE
:10178000D367FFF7B7FB0837DCE7C0469894001033
:1017900060940010079100106C94001070B50C005C
:1017A00001001648FFF7A6FB051E24D001001448CF
:1017B000FFF7A0FB002806D0E378012B03D10069D6
:1017C000FFF724FB207029000E48FFF793FB002849
:1017D00006D02379012B03D10069FFF737FB607036
:1017E00029000948FFF786FB002804D06379012B04
:1017F00001D18369A370002070BDC04675940010AC
:1018000078940010839400108B94001070B504003D
:101810000D0086B00021142201A807F01EFA29004D
:101820002000FFF767FB0400002C18D021001C48A3
:10183000FFF760FB0028F7D00569002D0AD0194E8C
:101840002900300007F014FB00280BD1310001A85B
:1018500007F018FB210001A8FFF74CFB0400200053
:1018600006B070BD104E2900300007F001FB0028C3
:10187000ECD029000D4807F0FBFA0028E6D00C4E0A
:101880002900300007F0F4FA0028DFD029000948C9
:1018900007F0EEFA0028DDD121000748C1E7C04675
:1018A00085920010AD920010969200109D9200104B
:1018B000A59200108A9200109092001010B5FFF7C8
:1018C00019FB0124002809D08168002906D00448AA
:1018D000FFF710FB002801D0C468E4B2200010BD5F
:1018E0008F940010F7B5040000200D00FFF74EF8AC
:1018F0002000FFF7ADF9071E49D001002548FFF78A
:10190000F9FA041E06D1012676423800FFF758F88E
:101910003000FEBD204E01003000FFF777FF2100B0
:1019200000903000FFF7CAFF009B0600002B28D074
:101930001869FFF76BFAEE7000262870210017482F
:10194000FFF764FF210000901448FFF7B7FF009BEA
:101950000190002B18D01869FFF778FA019B687086
:101960002B7121000E48FFF751FF210000900C4819
:10197000FFF7A4FF009B002BC5D09B696871AB707B
:10198000C3E701267642D9E701267642E9E7052634
:101990007642BDE77594001078940010839400108F
:1019A0008B940010F0B5050085B000200C00FEF708
:1019B000EDFF2800FFF74CF90190002800D108E165
:1019C00001008648FFF796FA051E00D1FDE0844F1E
:1019D00001003800FFF71AFF290006003800FFF762
:1019E0006DFF002E00D1D4E09422B3695200DBB227
:1019F0002370A0542200303213703623FF33E0549A
:101A00000023784F290038000093FFF7FFFE2900DC
:101A100006003800FFF752FF002E00D1BCE0F3684B
:101A20005A1E93412A22DBB2FF326370A054220077
:101A3000313213709B235B00E0546B4F2900380058
:101A4000FFF7E4FE290006003800FFF737FF002EFD
:101A500000D1A5E0F3685A1E93412C22DBB2FF327D
:101A60002374A0542200403213709C235B00E05486
:101A70005E4F29003800FFF7C9FE29000600380034
:101A8000FFF71CFF002E00D18EE09622B3695200B2
:101A9000DBB26361A05463643A23FF33E054544ED5
:101AA00029003000FFF7B2FE290007003000FFF7E1
:101AB00005FF0500002F00D17AE02000BB6903225A
:101AC000DEB231002C3007F0C8F82000323003229B
:101AD0002900FF3007F0C1F82000032231005C30FC
:101AE00007F0BBF820003F3003222900FF3007F049
:101AF000B4F801993F48FFF7FDF90600002F64D0C4
:101B00002E230122FF33E2540220230098213A4F72
:101B1000FE33FF304900188662549887D887310019
:101B20003800FFF773FE310005003800FFF7C6FEEE
:101B30000390002D40D0AB690293304F3100380044
:101B4000FFF764FE310005003800FFF7B7FE002DF7
:101B500037D0AD6923002100220053338131703228
:101B6000FF33FF31029E55601660039E58701E7051
:101B7000023308328B42F5D1A12302225B00FF32EF
:101B8000E25202330198E252FEF71AFF009805B0C4
:101B9000F0BD01235B4234E701235B4200934CE735
:101BA00001235B42009363E701235B42009376E7E6
:101BB00001235B4200939CE701235B420295009363
:101BC000BBE701235B420093C4E701235B42009320
:101BD000D2E705235B420093D8E7C0465892001035
:101BE000649300107D9200103E9300102793001024
:101BF00055930010C4920010CE920010D69200109F
:101C0000DC23F0B59B0585B00093002302AD019560
:101C100002901848184C06686B60306A0768002FFD
:101C200007DBA34203D10120404205B0F0BD0133E0
:101C3000F4E7A342F7D06B46C3600123BC36836050
:101C40003368C01800230668002E03DAA342EAD0E6
:101C50000133F8E7A342E6D0A02300981B06984280
:101C600001D00098E1E7029B002013606B680B60D5
:101C7000DBE7C046B8040E08983A00000122F0B530
:101C80000024184B0668196832400B6ABC310D6895
:101C900015495D191F68002F06DB8C4202D1012017
:101CA0004042F0BD0134F5E78C42F8D0002A00D163
:101CB00006000120DE60986000202C68002C03DA0A
:101CC0008842ECD00130F8E78842E8D0DB68002A8F
:101CD00000D11B68A022002012069342E1D0180018
:101CE000DFE7C046B8040E08983A00000A4B37B543
:101CF0001B780500013B0024012B05D8074B01A8E8
:101D00000193FFF7BBFF0400002D02D0280004F070
:101D1000C7FC20003EBDC046E40D0E080101013A9B
:101D200007B5034B01A80193FFF7A8FF0EBDC046FE
:101D30000101003210B5FFF7F3FF002801D107F0D1
:101D4000ABF910BDF8B5040008001500FFF7CEFF91
:101D50001D4B1B68002B20DA80261C4B1C4FB60045
:101D6000BB511C4B1C481B681A009832196812683A
:101D70008A18116808401949014311601A0090320D
:101D800012681B689B18102219681142FCD00120B0
:101D900004F086FCBC51FFF7CDFF002D0CD005F000
:101DA00097FBC02201230E495200885803438B50F1
:101DB00005F0CAFB05F074FB200005F0BDFC002017
:101DC00004F0F2FFFBE7C046000126400040001689
:101DD00000002040B8040E08FCFF00000300FA05D4
:101DE00000002640C0220123044910B55200885843
:101DF00003438B5005F0A8FB10BDC04600002640F1
:101E0000F8B5294B421E05009A4249D8274B1A784B
:101E1000002A45D10124264F1C703B78254E002B0B
:101E200007D1FFF7DFFFE122D200B358A343B3503D
:101E30003C70C02201215200B35800248B43B350A0
:101E40001D4B1D801D4B1A005988A94222D8A300A2
:101E5000D35A9D4200D21D00194B20001C7005F082
:101E60005BFBC22328005B00F65806F035FD154ADF
:101E7000154B05F073FE05F087FD11231C1B103B6D
:101E8000A3408019C01A80B205F034FBFFF7AAFF07
:101E90000020F8BD013404330D2CD5D1013CDBE723
:101EA00001204042F5E7C0466F170000B4040E0859
:101EB000B5040E0800002640B2040E08A4940010D9
:101EC000B0040E0833DFC14F1C409F3FC0220120E9
:101ED000044952008B5883438B500022024B1A70E6
:101EE0007047C04600002640B4040E08C0220120FE
:101EF000024952008B5883438B50704700002640A4
:101F0000014B18607047C046B8040E08044B1B68AC
:101F10001A00BA3212881B6A5043C0187047C04674
:101F2000B8040E08A02300B51B06984226D015D889
:101F3000802825D00AD8102824D0402824D0002872
:101F40000BD0154809E0A420C00306E08022134B03
:101F5000520090421CD09842F3D100BD104B9842E1
:101F600018D0104BC0180428EBD805F00BFCECEA95
:101F70000F0305000C48F0E70C48EEE70020ECE703
:101F80000B48EAE70B48E8E70B48E6E70B48E4E7CD
:101F90001800E2E7A020D7E7FF0052000600520039
:101FA000090000A0FFFFFF0F0200520003005200D3
:101FB00005005200010050000200500001005200D4
:101FC00010B50020FFF7A2FF0A4B1C682300BC33AA
:101FD0001B68C0180368002B0ADB074B1868FFF763
:101FE000A1FF012263689A609A68002AFCD110BDA3
:101FF0000248FCE7B8040E08BC040E0802005000BA
:10200000C30570B505000C00DE0D002B20D10029A2
:102010001ED005F02FFB0F4B0F4A1A605E609D60CB
:10202000DC600E4B1B685233197800290BD004F08A
:10203000A0FAFA21890005F0CDFB0100084805F05F
:10204000C9FB084BC1188020400007F01DF870BD87
:102050000548FCE7BC040E0800010005B8040E08A2
:10206000C0EA210148260000060052000E4B10B5C0
:102070001B689C695B69001BC0090001C0181F2315
:102080001A40032907D8C9008B408A4004689C4342
:102090002243026010BD0439C9008B408A40446865
:1020A0009C4322434260F5E7B8040E08F8B51E00D1
:1020B00006AB15001A7807000C00FFF7D7FF0123C5
:1020C00019001E40A140A6403A68A4008A43164366
:1020D0000F2211001540A140A540054B3E601B6832
:1020E000813318783F183B688B431D433D60F8BD32
:1020F000B8040E08064B1B68BC331B68C3181B686A
:10210000002B03DA89B24160002070470148FCE7E8
:10211000B8040E0801008A000368002B04DA89B2B3
:10212000C2608160002070470048FCE701008A001F
:10213000064B1B68BC331B68C3181B68002B03DAF3
:10214000C36800200B6070470148FCE7B8040E0824
:1021500001008A00024B1A68002A00D118607047FB
:10216000D0040E08F0B52C24444315481F00006825
:102170001E0A0019FF2426402740124C1B0C25681C
:1021800007602C6A46608360BA352D886F433F191B
:102190000761370080377F01E7190B4D76014761F2
:1021A000A4191F043B436419236000238361059B2A
:1021B000C2610162002B01D01B888381F0BDC04643
:1021C000D0040E08B8040E0808100000F0B58368AB
:1021D00085B002AD2B800368066A17336B804368B5
:1021E000476A0095826AC16A040003930369C06864
:1021F000FFF7B8FF00213B000A0030000091FFF715
:10220000B1FF2800216B04F001FA0022AB5E002B25
:1022100006DB1F2213401E3A9A401300014A136046
:1022200005B0F0BD00E100E0F7B52C26134C70437B
:102230004E43246801932518A4192E69002E19D045
:10224000A069002818D13168002915DA01216F68CA
:102250000D0063689D40AC4613689DB263461B0445
:102260001D431560F260A161B940019B89B26362B0
:10227000B160FEBD0248FCE70248FAE7D0040E0850
:1022800004028A0007028A0073B50026426904002E
:10229000D56801962B0CB34221D01B041360136840
:1022A000194B00691B68BC331B68C3181B68B34219
:1022B00015DA01A9FFF73CFFB0420CD10198E269A1
:1022C00003681E0CDBB29A4205D9226A9B009B5818
:1022D000002B00D0984731002069FFF70BFFADB20B
:1022E000002D09D063691D6000251B68636AAB423D
:1022F00005D098476562A56163691B6873BDA36AD1
:10230000002BF8D09847F6E7B8040E082C2310B538
:102310004343034A1068C018FFF7B6FF10BDC0461C
:10232000D0040E08F8B5184B0D001B681A003332A4
:102330001278824226D9002924D00A681F2116006B
:102340000E400A421ED11900BA310C880F4F60436B
:102350001C6AD2080419310068683C6006F07DFCF4
:1023600031002000FFF7C6FE31002A003868FFF771
:10237000D3FE011E04D13868FFF7BCFE002800D050
:102380000348F8BD0348FCE7B8040E08D4040E085F
:1023900001018A0003018A0010B504000800002A28
:1023A0000CD1002913D10B4B1A681300BA331B88C8
:1023B000126A63439B18084A136010BD002906D0B7
:1023C0000649086020004A60FFF7ACFFF5E70448C3
:1023D000F3E7C046B8040E08D4040E082000000835
:1023E00003018A00F7B5184F04003B680191DE68CD
:1023F0003368834226D90025A94202D1FEF76DF841
:10240000050038680368002B1ADA1F2201232240D6
:10241000934064097268A4001419226813420DD015
:102420009A43226000240021FFF764FE019B002BE9
:1024300002D12800FEF755F82000FEBD034CF2E75C
:10244000034CF3E7034CF7E7D4040E0802018800BD
:102450000301880004018A000A4B1B68DB681A68C4
:1024600082420DD959681F23420918401E3B834000
:10247000920050581840431E9841034BC0187047B3
:102480000248FCE7D4040E080001880004018A0019
:1024900070B59621002004F06FF90021080003F0C8
:1024A0009BF9444244412D4B64421C402C4B050097
:1024B0000020E41803F0EEF8012003F0C7F8002034
:1024C00002F0A0FF05F0D6F8264E33683F331B78A4
:1024D000002B03D0012003F085FD0500002D00D066
:1024E000214C33683F331B78012B03D9022003F0C2
:1024F00079FD0500002D00D01C4C0021012003F0C7
:10250000ABFB002800D01A4C002003F05BF9051E3D
:102510000ED103F0D7FB1223FF33984208D10121DB
:10252000280003F027F9002800D00D4C05F0A2F890
:1025300003F02CFC002800D00E4C0021080003F012
:102540008BFB002800D00C4C0021080003F012F98E
:10255000002800D0024C200070BDC046F1F0E5FE1E
:102560000F0F1A01B8040E082F0F1A012E0F1A01AF
:102570004E0F1A013F0F1A014F0F1A014E4BF0B5C3
:10258000C4001B19002900D18AE0072A00D987E07E
:102590000D001C005435216004310834A942FAD1E1
:1025A00001219140441C5960A4B2434BE400E4185B
:1025B0006160841CA4B2E400E4186160C41CA4B28D
:1025C000E400E4186160041DA4B2E400E418616052
:1025D000441DA4B2E400E4186160841DA4B2E400C8
:1025E000E4186160C41DA4B2E400E4186160040052
:1025F0000834A4B2E400E418616054002700032604
:102600002E4CBE4025682C00803424780234A40867
:102610002418E400E41866600F2694002A00A640FF
:1026200081321278023292081218D200D218566003
:102630003E001036B4462A006746032682321278DE
:10264000BE40023292081218D200D21851602A00FD
:10265000833212783143023292081218D200D21813
:102660005160FE22012684352978920002312240F1
:1026700089080818511C8E4031000126C000C3187B
:10268000901C864031430126964003270E43D11CFF
:102690008F40374307260532964037435F60F0BDD1
:1026A00000220121100049420132186059600833AC
:1026B000152AF9D1F3E7C046DC040E08B8040E0869
:1026C000C300013030B580B2124CC0001B19001994
:1026D000002901D0072A06D901220021524219609F
:1026E0005A6006C030BD0C4C2468A5696469491B5A
:1026F000C909090109191960043101601F21032A60
:1027000003D8D20091405960ECE7043AD2009140DE
:102710004160E7E7DC040E08B8040E08F7B50024B2
:102720000700008825000138082800D90DE105F0D0
:1027300047F83F00090025004C009E00E700D90241
:102740004E005A007D889D49E8000B185B68FA68C6
:102750001C00144013420ED15E1C0CD0922D0AD8DE
:102760004158002907D0BD6808682B4303401A432D
:102770000A607C60F7BD924B7B60FBE778888F4BEB
:10278000C200991849684C1CF5D09228F3D8D0584B
:102790000028F0D0BB6802680B4203D01C005440F4
:1027A0002142E8D10A401343036000237B60E1E744
:1027B0007B88922BDFD8814ADB009B58002BDAD034
:1027C0001B68BB6000237B60D4E77C60D2E7BB68FA
:1027D000022B05D1FB68282B02D100237B60C9E7BF
:1027E000784B7B60C6E7BB68002B00D110E2FA682B
:1027F000052A00D90CE200227A60734A1268002A86
:1028000005D11A60DA609A615A621A63B2E71178E8
:10281000002924D091681960D16859606B4999608A
:10282000517800291DD0116AD960916A19616849EF
:102830005961516A9961D16AD96166491962917881
:10284000002911D0116B5962916B99626249D9626A
:10285000516BD26B19635A63604A9A638AE71960B5
:10286000DEE7D9609961EAE75962196382E7B968DE
:10287000002900D1CCE15A4C5A4D2378F022019323
:10288000002328007B6006F0DFF903F03DFF0028FD
:1028900010D0FFF7FDFD78607B68002B00D069E762
:1028A0002800237001F0B8FD7860002825D0019B36
:1028B00023705FE72378002BEED1EB78002BE8D074
:1028C000EB79002BE5D02B0055331B78009303F0F8
:1028D00009FF061E02D0444E7E60DAE703F05EF880
:1028E000002805D103F046F8009803F081F8F3E7DB
:1028F00003F05EF80028F5D0EDE70123237039E7F7
:10290000788832281DD82B281FD92C3806281CD8A7
:1029100004F056FF7600CD001B00C801CD011B005E
:10292000C0010B2811D804F04BFF13003200100037
:10293000100010001000220127012C0135013F0179
:102940008801663883B20B2BEBD91D4B7B6011E7F6
:10295000BA68264B002A10D15A68254911401B221B
:102960000A435A605968234A114359605968114310
:10297000596059680A435A602FE7E82158681E4C8D
:1029800089012040014359605A682240F3E71B4BFC
:102990001A681300BA33198807234B43126A9B182D
:1029A0001A68002AFCDA8022D96852050A43DA60E4
:1029B00000225A605B687A60DCE6C046DC040E08E0
:1029C000FF0F1A01F90F1A01F40B0E0820008900FD
:1029D00035008B004A008D005F008F00740091006D
:1029E000F00B0E08000B0E086F0F1A0100002640B6
:1029F0000000FC0F003A0280FF00FC0FB8040E0834
:102A00000024AE4BB1251C80AD4B80261C8003F00A
:102A1000ABF9ED00B605002819D0200003F052F9FB
:102A200002283BD1A74B9C46002C1CD16146A64BEB
:102A30005A590A4032435A510021200003F00CF940
:102A40000123A3409D4A128813439C4A13809F4B45
:102A500001341B683F331B789C4200D9BDE620003F
:102A600003F0ACFAD7E70320974A9949A3009B18D3
:102A70005A58120F024204D05A58120F0240012A2B
:102A800006D10120A0408E4A128810438C4A108043
:102A900060465A58024032435A50CDE7002CD6D1F6
:102AA000894A884953590B4033435351CFE7834BED
:102AB0001B88002B0FD103F057F9041E09D0854C59
:102AC00042E0013D02F0CCFF022806D0002DF8D1F3
:102AD000814C7C604EE67F4DF4E7002DF8D0002657
:102AE0007D4C0123B3409AB20092744A128813427B
:102AF00019D00221300003F0AFF8002E0BD03000C7
:102B000003F066FA002801D001F0C5F8002D0AD0C4
:102B1000013DF4E7013D03F02FF9002801D001F059
:102B2000ABF8002DF6D1694B01361B683F331B789B
:102B30009E42D6D9CDE7C020634980055B189958DD
:102B400001439950EFE7013C03F016F9002802D148
:102B5000002CF8D1BCE7002CBAD0B122C0235A49CE
:102B6000D20088589B05034300248B50B1E704F042
:102B700067FA00237B60FDE504F0B4FA00237B6074
:102B8000F8E5B868431E9841C0B204F0BBFA0023D0
:102B90007B60EFE5BB681878072839D8597804F0CE
:102BA00081FA00237B60E5E5BB68187802282FD8FE
:102BB0005A6800926A4612780F2A29D8842444431E
:102BC000464E1A7A331901930433DB6F00999C4601
:102BD00001238B4000251C0065450AD00199EB00BC
:102BE000C958214227D0022A15D0032A1BD0002A17
:102BF00007D0002300997B6004F0A6F9002807D1D4
:102C0000B8E5842444431B19F6187368DB07F0D435
:102C1000334B7B60AEE5842444431B19F61873687C
:102C20001342E6D1F4E7842444431B19F618736871
:102C30005B07DED4ECE70135CEE7BB6818780228E5
:102C4000E6D8842204254243197A244BAC469B18CB
:102C50001A1DD46F0022A24207D100237B60002BF3
:102C600000D087E504F0AAF9C8E702290AD00329B1
:102C70000DD0002903D101265D68354205D001320F
:102C80000833E8E75D680D42F9D1154BE6E7664683
:102C90005D68F2E7BB681A891888596803F0B6FACC
:102CA000786067E5B86803F065FB786062E5B8684E
:102CB00002F052FE00237B605CE5C046D8040E089B
:102CC000DA040E08FFFFFFCF00002640B8040E080C
:102CD000FC05000040420F00FA0F1A0174090E08AB
:102CE000FE0F1A01AF4B1B78002B01D100F0C0FF83
:102CF00078880838632800D927E604F057FDC90012
:102D0000DA00EE0017012A013D015B016F0126FE8A
:102D100083019701AB01CB011A0269024403080445
:102D2000240440045C0478049404A804BC04F7045C
:102D3000130527053B0557056B057F05A506D0063E
:102D400003073807940726FE26FEB00726FE26FE58
:102D500026FE26FE26FE26FE26FE26FE26FE26FE53
:102D600026FE26FE26FE26FE26FE26FE26FE26FE43
:102D700026FE26FE26FE26FE26FE26FE26FE26FE33
:102D800026FE26FE26FE26FE26FE26FE26FE26FE23
:102D900026FE26FE26FE26FE26FE26FE26FE26FE13
:102DA00026FE26FE26FE26FE26FE26FE26FE26FE03
:102DB00026FE26FE26FE26FE26FE26FE26FE6400B3
:102DC0007F009A00B1000223774CFF3326882380CE
:102DD000BB68E21CDBB22579D3775A425341237199
:102DE000FB68FF2B00D1F8E4200001F015FB7860B0
:102DF000002800D1BEE426802571BBE401236A4C83
:102E000026882380BB68221DDBB22579D377023B5D
:102E10005A4253412371FB68FF2B00D1DDE42000AF
:102E200001F0FAFA7860002800D1A3E42680257129
:102E3000A0E45D4C651DEB7F267800930123237091
:102E4000EB77FB68FF2B00D1C7E4200001F0E4FA28
:102E50007860002800D18DE4009B2670EB7789E430
:102E6000514C651DEB7F26780093012323700023CE
:102E7000EB77FB68FF2B00D1AFE4200001F0CCFA28
:102E80007860002800D175E4009B2670EB7771E430
:102E90000023454C65796371FB68FF2B00D19CE4EE
:102EA000200001F0B9FA7860002800D162E4657171
:102EB00060E400233C4CA56E667AA3666372FB68EF
:102EC000FF2B00D189E4200001F0A6FA78600028E9
:102ED00000D14FE46672A5664CE4BB68002B21D09C
:102EE000324A12683F32127893421BD800222E4C8D
:102EF000012B11D1A57AA272FB68FF2B00D16CE4E3
:102F0000200001F089FA7860002800D132E4BB6823
:102F1000012B04D1A5722DE4E57AE272ECE7E572AB
:102F2000FFF728FC224B7B60FFF724FC01231E4C9B
:102F3000E579E371FB68FF2B00D14EE4200001F03E
:102F40006BFA7860002801D1FFF714FCE571FFF7F8
:102F500011FC0023144CE579E371FB68FF2B00D1D1
:102F60003BE4200001F058FA7860002801D1FFF717
:102F700001FCE571FFF7FEFB0B48BB6804005A1E1D
:102F80009341553425782370FB68FF2B00D124E44E
:102F900001F042FA7860002801D1FFF7EBFB2570C1
:102FA000FFF7E8FBF00B0E08000B0E08B8040E0844
:102FB000BD0F1A010123CC48441CE57FE377FB6871
:102FC000FF2B01D1FFF709FC01F026FA78600028F9
:102FD00001D1FFF7CFFBE577FFF7CCFB0023C24819
:102FE000441CE57FE377FB68FF2B01D1FFF7F5FB7E
:102FF00001F012FA7860002801D1FFF7BBFBE577FA
:10300000FFF7B8FB0123B84C257A2372FB68FF2B2E
:1030100001D1FFF7E2FB200001F0FEF97860002803
:1030200001D1FFF7A7FB2572FFF7A4FB0023AE4CED
:10303000257A2372FB68FF2B01D1FFF7CEFB20001E
:1030400001F0EAF97860002801D1FFF793FB2572BF
:10305000FFF790FBBB68A448DBB20400013B5A4277
:10306000534156342578237000237B60FB68FF2B87
:1030700001D1FFF77FFB037A002B01D1FFF77AFB29
:1030800001F0CAF97860002801D1FFF773FB2570C1
:10309000FFF770FB0024B8687C60052834D8012253
:1030A000914B04F079FB032225282B2E5C7D5A7569
:1030B0007B68002B01D0FFF75DFBFB68FF2B01D184
:1030C000FFF758FB884D280001F0A6F9786000282A
:1030D00001D1FFF74FFBB868052801D9FFF74AFB7C
:1030E00004F05AFB15181B1E21249C7D9A75DFE7FE
:1030F000DC7DDA75DCE71C7E1A76D9E75C7E5A76D1
:10310000D6E79C7E9A76D3E7784B7B60D0E76C75E8
:10311000FFF730FBAC75FFF72DFBEC75FFF72AFBD3
:103120002C76FFF727FB6C76FFF724FBAC76FFF7D6
:1031300021FB0022B8687A60052833D86A4B04F076
:103140002BFB032225282B2E5C7D5A757B68002BD8
:1031500001D0FFF70FFBFB68FF2B01D1FFF70AFB44
:10316000614D280001F058F97860002801D1FFF77F
:1031700001FBB868052801D9FFF7FCFA04F00CFB45
:1031800016191C1F22259C7D9A75DFE7DC7DDA75F8
:10319000DCE71C7E1A76D9E75C7E5A76D6E79C7E01
:1031A0009A76D3E7514B14007B60CFE76C75FFF73D
:1031B000E1FAAC75FFF7DEFAEC75FFF7DBFA2C7677
:1031C000FFF7D8FA6C76FFF7D5FAAC76FFF7D2FAAC
:1031D0000026BB687E601868052800D9A6E0424D2D
:1031E0001B792A0004F0D8FA03384A5C6E90A532A5
:1031F000147813703E4A1800126800926E7D03F036
:103200007DF9A6352B783B49D84004F0E3FA384BDA
:1032100018607B68002B01D0FFF7ACFA002E01D1BB
:10322000FFF7A8FAFB68FF2B01D1FFF7A3FA2E4D99
:10323000280001F0F1F87860002801D1FFF79AFA30
:10324000BB681868052801D9FFF794FA2B0004F031
:10325000A3FA70777E858C93AC3214781370264A6B
:10326000180012680092AE7D03F048F9AD352B7856
:103270002049D84004F0AEFA1F4BC9E7B4321478A5
:1032800013701E4A180012680092EE7D03F036F9A2
:10329000B5352B781749D84004F09CFA174BB7E79F
:1032A000BC3214781370164A1800126800922E7EF1
:1032B00003F024F9BD352B780E49D84004F08AFA82
:1032C0000F4BA5E7C432147813700E4A1800126829
:1032D00000926E7E03F012F9C5352B780549D8406F
:1032E00004F078FA074B93E7000B0E08FF0F1A0162
:1032F000A80B0E0840420F00B00B0E08B80B0E08CA
:10330000C00B0E08C80B0E08CC3214781370E84AB4
:10331000180012680092AE7E03F0F0F8CD352B78DD
:10332000E449D84004F056FAE14B71E7E24B7B6088
:103330006FE7A5331C70009BA8352B60FFF71AFAC6
:10334000AC331C70009BB0352B60FFF713FAB4331D
:103350001C70009BB8352B60FFF70CFABC331C7057
:10336000009BC0352B60FFF705FAC4331C70009B2F
:10337000C8352B60FFF7FEF9CC331C70009BD035AD
:103380002B60FFF7F7F90024BA687C601068052805
:1033900000D995E0C94B127904F0FEF903384A5C74
:1033A0006E80C7490D780A705C7DC64AA5331878CF
:1033B000166803F0A3F8C24BBE491B78D84004F04E
:1033C00009FAC04B18607B68002B01D0FFF7D2F9D7
:1033D000002C01D1FFF7CEF9FB68FF2B01D1FFF7DD
:1033E000C9F9B64C200001F017F87860002801D127
:1033F000FFF7C0F9BB681868052801D9FFF7BAF9CB
:10340000230004F0C9F960666C72787EAE490D78CD
:103410000A709C7DAD4AAC331878166803F06EF8DC
:10342000A94BA4491B78D84004F0D4F9A74BC9E7AD
:10343000A7490D780A70DC7DA64AB433187816685F
:1034400003F05CF8A24B9B491B78D84004F0C2F90A
:10345000A04BB7E7A0490D780A701C7E9F4ABC3389
:103460001878166803F04AF89B4B92491B78D840AD
:1034700004F0B0F9994BA5E799490D780A705C7E84
:10348000984AC4331878166803F038F8944B894981
:103490001B78D84004F09EF9924B93E792490D783F
:1034A0000A709C7E824ACC331878166803F026F89E
:1034B0008D4B80491B78D84004F08CF97C4B81E718
:1034C0007D4B7B607FE7A633A8341D702660FFF735
:1034D00051F9AD33B0341D702660FFF74BF9B533A9
:1034E000B8341D702660FFF745F9BD33C0341D7038
:1034F0002660FFF73FF9C533C8341D702660FFF71B
:1035000039F9CD33D0341D702660FFF733F96B4C99
:10351000A37C250000930123A2352E78A374BB68F9
:103520002B70FB68FF2B01D1FFF757F9200000F04B
:1035300073FF7860002801D1FFF71CF9009B2E7003
:10354000A374FFF717F95D4C2500E37CA3352E78B3
:1035500000930123E374BB682B70FB68FF2B01D140
:10356000FFF73BF9200000F057FF7860002801D1F9
:10357000FFF700F9009B2E70E374FFF7FBF84F4C48
:10358000237F250000930123D6352E782377BB684F
:103590002B70FB68FF2B01D1FFF71FF9200000F013
:1035A0003BFF7860002801D1FFF7E4F8009B2E7004
:1035B0002377FFF7DFF84148BB680400D83425883B
:1035C000238000237B60837F002B01D1FFF7D2F89B
:1035D000FB68FF2B01D1FFF7CDF800F01DFF7860ED
:1035E000002801D1FFF7C6F82580FFF7C3F833485C
:1035F000BB680400DA342578237000237B60837F66
:10360000002B01D1FFF7B6F8FB68FF2B01D1FFF7C4
:10361000B1F800F001FF7860002801D1FFF7AAF8A7
:103620002570FFF7A7F80123244CA57FA377FB683B
:10363000FF2B01D1FFF7D1F8200000F0EDFE7860FC
:10364000002801D1FFF796F8A577FFF793F800233C
:103650001A4CA57FA377FB68FF2B01D1FFF7BDF8BC
:10366000200000F0D9FE7860002801D1FFF782F831
:10367000A577FFF77FF81148BB680400D43425789C
:10368000237000237B60C37E002B01D1FFF772F80B
:10369000FB68FF2B01D1FFF76DF800F0BDFE7860ED
:1036A000002801D1FFF766F82570FFF763F8C046E0
:1036B000D00B0E0840420F00FF0F1A01000B0E083E
:1036C000A60B0E08A80B0E08AD0B0E08B00B0E08CB
:1036D000B50B0E08B80B0E08BD0B0E08C00B0E087C
:1036E000C50B0E08C80B0E08CD0B0E08D248BB68E0
:1036F0000400D5342578237000237B60C37E002B23
:1037000001D1FFF737F8FB68FF2B01D1FFF732F843
:1037100000F082FE7860002801D1FFF72BF82570B9
:10372000FFF728F80123C44CE57EE376FB68FF2B06
:1037300001D1FFF752F8200000F06EFE78600028FB
:1037400001D1FFF717F8E576FFF714F80023BA4C1C
:10375000E57EE376FB68FF2B01D1FFF73EF8200002
:1037600000F05AFE7860002801D1FFF703F8E576F3
:10377000FFF700F8B04C637F250000930123D73595
:103780002E786377BB682B70FB68FF2B01D1FFF7A6
:1037900024F8200000F040FE7860002801D1FEF7F8
:1037A000E9FF009B2E706377FEF7E4FFA24B597987
:1037B000002903D0A14B7B60FEF7DCFFBA681068DC
:1037C00098625068D8629068D26818635A637960CA
:1037D000FEF7D0FF0123984C65796371FB68FF2BDE
:1037E00001D1FEF7FAFF200000F016FE78600028F5
:1037F00001D1FEF7BFFF6571FEF7BCFF0025BA6877
:103800007D60106805284CD88B4B03F0C5FF03275B
:103810002E353C431900012096311E7B0D8818730C
:1038200093880B807B68002B01D0FEF7A3FFFB6819
:10383000FF2B01D1FEF79EFF7F4C200000F0ECFD36
:10384000BB68786000284ED01868052801D9FFF7BA
:103850007CF803F0A1FF2A2F34393E4319000120E0
:1038600098315E7B0D885873DAE7190001209A3190
:103870009E7B0D889873D3E7190001209C31DE7B75
:103880000D88D873CCE7190001209E311E7C0D886D
:103890001874C5E719000120A0315E7C0D885874AA
:1038A000BEE7674B2E007B60BCE72673963425800D
:1038B000FEF760FF667398342580FEF75BFFA67302
:1038C0009A342580FEF756FFE6739C342580FEF778
:1038D00051FF26749E342580FEF74CFF6674A03499
:1038E0002580FEF747FF1868052801D9FEF742FF3B
:1038F00003F052FF03203F5F758B637A002B03D0E8
:10390000200000F0D3FCA0662300A533187800281F
:1039100001D0FEF72FFF02F0F1FD2300A6331B7844
:103920004849A83499404B08181803F053FF206009
:10393000FEF720FFA37A002B05D02100012000F024
:10394000D3FC231DD8672300A5331878012801D0A4
:10395000FEF710FF02F0D2FD2300A6331B78394991
:10396000A83499404B08181803F034FF2060FEF784
:1039700001FFE37A002B06D02100022000F0B4FC06
:1039800023008C3318602300A5331878022801D057
:10399000FEF7F0FE02F0B2FD2300A6331B782949A2
:1039A000A83499404B08181803F014FF2060FEF764
:1039B000E1FE2300A5331878032801D0FEF7DAFED4
:1039C00002F09CFD2300A6331B781E49A8349940C1
:1039D0004B08181803F0FEFE2060FEF7CBFE230014
:1039E000A5331878042801D0FEF7C4FE02F086FD46
:1039F0002300A6331B781349A83499404B081818A4
:103A000003F0E8FE2060FEF7B5FE2300A53318782A
:103A1000052801D0FEF7AEFE02F070FD2300A633AC
:103A20001B780849A83499404B08181803F0D2FEB7
:103A30002060FEF79FFEC046000B0E08590F1A01CA
:103A4000FF0F1A0140420F00BA689E4B1168D966F9
:103A500019009088703108801900907972310870CF
:103A60001900D079733108701900108974310880F9
:103A70001900907A763108701900D07A7731087081
:103A800019009089783108801900907B7A3108708C
:103A9000128A7C331A8000237B60FEF76BFE894C10
:103AA000657A002D03D0884B7B60FEF763FE01230F
:103AB0002000637200F0FAFBFB68A066FF2B01D1C7
:103AC000FEF78BFE200000F0A7FC7860002803D0F2
:103AD000A5666572FEF74EFE2300A5331878002810
:103AE00001D0FEF747FE02F009FD2300A6331B7844
:103AF0007649A83499404B08181803F06BFE2060F3
:103B0000FEF738FEB9680A68002A05D0704B1B68BA
:103B10003F331B789A4203D96E4B7B60FEF72AFE37
:103B20004B681E785D789C78D8781979654B012AA6
:103B30000FD11A00843216701A00853215701A00DF
:103B4000863214701A008732107088331970FEF7AD
:103B500044FE1A00903216701A00913215701A0045
:103B6000923214701A00933210709433EEE7BD68ED
:103B7000012D0FD1534B9B7A002B07D1544B1B685F
:103B80003F331B789D4201D8002D08D1524B7B60FA
:103B9000FEF7F0FD022DF1D14A4BDB7AECE7494C00
:103BA0002100012D19D1280000F09EFB231DD867AC
:103BB000A572FB68FF2B01D1FEF70FFE200000F07D
:103BC0002BFC7860002817D0BA680023012A0DD199
:103BD000221DD367A372FEF7CDFD022000F084FB07
:103BE00023008C3318600123E372E2E722008C3259
:103BF0001360E372FEF7BEFD2300A5331878431E61
:103C0000012B01D9FEF7B6FD02F078FC2300A633A4
:103C10001B782E49A83499404B08181803F0DAFD98
:103C20002060FEF7A7FD274C237D2500009301238C
:103C3000A4352E782375BB682B70FB68FF2B01D150
:103C4000FEF7CBFD200000F0E7FB7860002801D1F3
:103C5000FEF790FD009B2E702375FEF78BFD012271
:103C6000184B9A71BA689A6400237B60FEF782FD54
:103C70001A4B7B60FEF77EFD002D01D1FEF753FF4E
:103C8000B122C0201649D2008B58800503438B50C7
:103C90000024FEF748FF002D01D1FEF744FF114B31
:103CA000009C19880098104A0C40B300014201D1D1
:103CB000FEF741FF0A490D485B1899580140995099
:103CC000E6E7C046000B0E083E0F1A0140420F0007
:103CD000B8040E08BD0F1A012D0F1A01FF0F1A01AB
:103CE00000002640DA040E08FC050000FFFFFFCFAD
:103CF000F0B5154D87B02A6802AC1300BA331B88A3
:103D0000126A9B009B18DB6827001E0001930ECEF1
:103D10000EC7336820003B60FEF700FD019B07CC17
:103D200007C3852180203B68490133602B6840032D
:103D30001A6ABA33505018885158800000218018F0
:103D4000FEF7D8F907B0F0BDB8040E08002213B58D
:103D5000374910000B00013248600831932AFAD12C
:103D6000344A00201A60344A9A60344A1A61344A4C
:103D70009A61344A1A62344A9A62344A1A63344A5B
:103D80009A63344A1A64344A12681100403109783F
:103D9000042900D931489864052946D800211965BD
:103DA000516801240800083098652D48644218665F
:103DB0002C48DC6758662C4898662C4818672C48B5
:103DC0000918996700210B002A48013103604460FB
:103DD00008301029F9D12849081DC3670800FC30B4
:103DE0008360C42040000B508520116A40010918EF
:103DF000802040038860042168460180128F1F499B
:103E000005324280019302F001FC002800D001BE7F
:103E10006B4600229B5E002B06DB1F2213401E3ADE
:103E20009A401300164A136013BD1649B7E7C046FF
:103E3000DC040E0808002640000726400407264040
:103E400008072640100726408403264088032640A2
:103E50008C03264090032640B8040E0894032640A5
:103E60000400264000FF03F0480526404405264094
:103E700060F000005C050E0874090E08F13C0010AB
:103E800000E100E09803264010B5244C2368002B85
:103E900043D01A78002A0AD0DA6899682020FEF701
:103EA0006DFB23688920DA689968FEF709FC2368AE
:103EB0005A78002A16D09A6A196A3520FEF75EFBF6
:103EC00023684A20DA6A596AFEF758FB23688B2078
:103ED0009A6A196AFEF7F4FB23688D20DA6A596A38
:103EE000FEF7EEFB23689A78002A16D09A6B196BBE
:103EF0005F20FEF743FB23687420DA6B596BFEF7F3
:103F00003DFB23688F209A6B196BFEF7D9FB236862
:103F10009120DA6B596BFEF7D3FB10BDF40B0E0842
:103F20001FB56C4620800D4C029201946C46618056
:103F3000072807D1FF2368460393FEF7EFFB002015
:103F400004B010BD052807D1002905D168460393A8
:103F5000FEF7E4FB0198F3E70148F1E7FC0F1801D5
:103F6000FF0F1A0100B5032807D8013800230228E3
:103F700016D803F011FC0F1719001223FF339842D3
:103F800017D01423FF33984215D0033B98420ED02C
:103F90000F4B05E08B795A4253410D485B42034079
:103FA000180000BD4B79F6E70231CB7FF3E7CB7900
:103FB000F1E70B7AEFE70131CB7F002BE8D0054B1F
:103FC0001B6841331B78013B5A1E9341E5E7C0460D
:103FD000FE0F1A01B8040E0810B51B4B1B683E33C8
:103FE0001B7883422DD905282BD803F0D5FB030C71
:103FF00012181E240B7B002B23D00B00963318883D
:10400000FFF7B0FF10BD4B7B002B1AD00B0098338D
:10401000F5E78B7B002B14D00B009A33EFE7CB7BBB
:10402000002B0ED00B009C33E9E70B7C002B08D053
:104030000B009E33E3E74B7C002B02D00B00A03338
:10404000DDE70248DEE7C046B8040E08FE0F1A019D
:1040500088235B00984228D00BD8012814D002286E
:1040600014D0431E9841144B40421840134BC018C3
:1040700009E01223FF3398421AD01423FF339842E9
:1040800006D0022040427047886CFCE7886AFAE755
:104090000B4B1B68413318780138431E9841094B7C
:1040A0004042184080231B02E1E7FA20C001EAE702
:1040B00080200002E7E7C046FEED85FF00127A008F
:1040C000B8040E08FE7FFFFF02235B4270B5136049
:1040D000344B15001B6804001A003E3212788242ED
:1040E0005ED905285CD803F057FB031934494F55B6
:1040F0000B7B002B54D04B7A002B08D00B007A336B
:104100001B78022B03D08B6E2B60200070BD0B0040
:1041100096331888FFF79CFF2860F6E74A7B002A51
:104120003ED03F331B78002B0CD08B7A002B09D06C
:104130000B0088331B78022B04D00431CB6F2B602B
:104140000024E2E70B0098331888FFF781FF28600E
:10415000F6E78A7B002A23D03F331B78012B0AD94C
:10416000CB7A002B07D00B0094331B78022B02D0A4
:104170008C310B68E3E70B009A33E5E7CB7B002B30
:104180000ED00B009C33DFE70B7C002B08D00B001C
:104190009E33D9E74B7C002B02D00B00A033D3E732
:1041A000014CB2E7B8040E08FE0F1A0110B51C4B03
:1041B0001B683E331C781B4B13600023844201D8DC
:1041C000180010BD0528FBD803F0E6FA030C1218FE
:1041D0001E240023087B96319842F1D00B880021E1
:1041E0001160EDE70023487B98319842F6D1E7E76C
:1041F0000023887B9A319842F0D1E1E70023C87B05
:104200009C319842EAD1DBE70023087C9E3198423A
:10421000E4D1D5E70023487C9842D1D0A031DDE736
:10422000B8040E08FE0F1A010300A8331B6810B56E
:104230000400002B02D00848584310BD0300A533EA
:10424000187802F05BF90123A634227893405B08CA
:104250001818D040F1E7C04640420F0010B50400E6
:1042600001F0F0FE002805D12000034901F076FF9F
:10427000002800D0014810BD10270000FD0F1A01D2
:1042800070B50400150001F075FA00280AD1290064
:10429000200001F0A1FA002804D1200001F014FA56
:1042A000002800D0004870BDFD0F1A01030010B5B2
:1042B0000400963318882100FFF7CAFE030000208F
:1042C0009A1C0FD022007032118881420AD0E06E11
:1042D0007334584303F07EFA21784B1E9941013123
:1042E00003F078FA10BD000010B50C0000218842E0
:1042F00022D01C4B1B683F331B7883421CD3012800
:104300001CD12300983321001888FFF7A1FE230059
:104310002200843385321B78117886342478821CFD
:104320001CD0002908D0002C1AD0584303F052FAB0
:10433000210003F04FFA0100080010BD0228FBD154
:1043400023009A3321001888FFF782FE2300220001
:10435000903391321B7811789234DFE70021EBE73C
:104360002100E9E7B8040E08F8B504000F000129A0
:1043700032D10300817A427B0430C66F9833833098
:104380001B8805780020814225D0824231D0180058
:104390002100FFF75DFE184BC018184B984228D833
:1043A0006B1E9D41164B6D421D40164BED18237937
:1043B000002B1AD0AE421CD3134B9E4219D82100B9
:1043C0003800FFF791FF301A434258410F4B4042EB
:1043D00018400F4BC018F8BD0300C17A827B9A3396
:1043E0008C301B880668C579CCE7AE4201D3094BF7
:1043F000E3E70748EFE7C04600F7C2FF00879303F3
:10440000C863E3FF20BCBE0080F0FA0202F0E5FEC4
:10441000FE0F1A0180D1F008F0B504008BB000281F
:1044200001D100F08BFF0700A5372100387805AADD
:10443000FFF7BCFE059E002E04D0014ECAE2C04626
:104440009F0F1A01022800D17BE21223FF3398420A
:1044500000D1A0E201281DD1D24B1B68002B00D156
:10446000BBE21A78002A00D1B7E25A68A16C8A42EE
:1044700000D0B2E29A68E16C8A4200D0ADE2DB681B
:10448000226D934200D0A8E2230054331B78102BF6
:1044900000D0A2E201F0E4FA02281ED06379002BDA
:1044A0001BD0C14AA36A9B18C04A934201D900F0AD
:1044B00048FFE36A013B632B01D900F042FFFA2277
:1044C000236B9200013B934201D300F03AFF636BF0
:1044D000013B934201D300F034FFA379002B0ED0AF
:1044E0002279A36C002A00D179E2B14A934201D922
:1044F00000F02AFFE36C002B01D100F025FF237BA5
:10450000002B0FD0AB4B1B683E331B78002B09D020
:104510002300963321001888FFF724FD002801D0DE
:1045200000F015FF637B002B0FD0A24B1B683E33BE
:104530001B78012B09D92300983321001888FFF735
:1045400011FD002801D000F005FFA37B002B0FD048
:10455000984B1B683E331B78022B09D923009A33F2
:1045600021001888FFF7FEFC002801D000F0F5FEBE
:10457000E37B002B0FD08F4B1B683E331B78032B44
:1045800009D923009C3321001888FFF7EBFC002891
:1045900001D000F0E5FE237C002B0FD0854B1B687B
:1045A0003E331B78042B09D923009E332100188841
:1045B000FFF7D8FC002801D000F0D5FE637C002B6B
:1045C0000FD07C4B1B683E331B78052B09D9230089
:1045D000A03321001888FFF7C5FC002801D000F0A7
:1045E000C5FE01F0C1FB00285FD1637A002B5CD0CF
:1045F000237B002B01D100F0BCFE230096331888EA
:104600002100FFF725FD6C4BC0186C4B984201D977
:1046100000F0AFFE6A4AA36E9B182279002A00D1EF
:10462000DFE1684A934201D900F0A3FEE36E664AD7
:10463000013B934201D900F09CFE230070331B889C
:10464000624A013B9BB2934201D900F092FE2300E3
:1046500072331B78042B01D900F08BFE23008022DB
:1046600074331B889200934201D300F082FE230032
:1046700076331B780F2B01D900F07BFE23007733B4
:104680001B780F2B01D900F074FE230080217833B2
:104690001B8889018B4201D300F06BFE23007C3321
:1046A0001B88934201D300F064FE424D2B683F33D8
:1046B0001B78002B13D0A37A002B10D0012001F01F
:1046C0007DFC00280BD12B683F331B78002B05D0D5
:1046D00001212000FFF748FE002800D03C4E2B6847
:1046E0003F331B78012B00D88BE1E37A002B00D1FC
:1046F00087E1002E00D06DE1022001F05FFC002870
:1047000000D170E1237F002B00D07EE1637D002B80
:1047100000D192E62B6840331B78002B00D18CE649
:104720003E7821003000FFF757FC002800D084E6D7
:104730002100300004AAFFF739FD88235B0098426E
:1047400000D17AE61423FF33984200D175E603289E
:1047500000D172E6049B002B00D06EE605AA210072
:104760003878FFF7B1FC1B4B059A04909A4200D8A9
:1047700063E6002800D060E62300A8331B68002B06
:1047800000D15AE6144F154E7B43B34200D954E68C
:104790002300A6331B78032B00D94EE6A37D002B04
:1047A0003BD01DE0F40B0E0800DC0BFFC0EA21013A
:1047B00080F0FA02B8040E0818FCFFFF18DDF505BA
:1047C00000CA91FE80BA8C01FEFF0300FE1F0000AC
:1047D000BF0F1A013F0D030040420F0080D1F008C7
:1047E0002B6840331B78012B17D92300AC332100F1
:1047F0001878FFF7F1FB002801D000F094FC2300AB
:10480000AD331A7803331B687B43B34201D900F000
:104810008AFC032A01D900F086FCE37D002B1CD022
:104820002B6840331B78022B17D92300B4332100A7
:104830001878FFF7D1FB002801D000F09CFC230082
:10484000B5331A7803331B687B43B34201D900F0B8
:1048500092FC032A01D900F08EFC237E002B1CD091
:104860002B6840331B78032B17D92300BC3321005E
:104870001878FFF7B1FB002801D000F075FC230089
:10488000BD331A7803331B687B43B34201D900F070
:104890006BFC032A01D900F067FC637E002B1CD05F
:1048A0002B6840331B78042B17D92300C433210015
:1048B0001878FFF791FB002801D000F070FC23006E
:1048C000C5331A7803331B687B43B34201D900F028
:1048D00066FC032A01D900F062FCA37E002B1DD0E8
:1048E0002B6840331B78052B18D92300CC332100CB
:1048F0001878FFF771FB002801D000F091FC22002E
:104900002300D0321268CD3357431B78B74201D908
:1049100000F086FC032B01D900F082FCE37E002B23
:1049200000D08DE0637F002B00D1AEE02300D733B1
:104930001B78002B00D1A4E0012B00D1ADE0AE4EDE
:1049400048E0AE4B1B68002B23D05A78002A20D0B9
:104950001A69A16A8A421CD15A69E16A8A4218D14D
:104960009A69216B8A4214D1DA69616B8A4210D14B
:104970001A6AA16B8A420CD15A6AE16B8A4208D149
:104980009A6A216C8A4204D1DB6A626C934200D13C
:1049900080E59B4E1EE0994B1B68002B19D09A783E
:1049A000002A16D022005632D9781278914210D1BE
:1049B0001A6BA16D8A420CD15A6BE16D8A4208D103
:1049C0009A6B216E8A4204D1DB6B626E934200D1F6
:1049D00060E58C4E30000BB0F0BD8B4EFAE78B4A91
:1049E00084E58B4A1EE62B683F331B78012B06D9E2
:1049F00002212000FFF7B8FC002800D182E6854E96
:104A0000E8E7002E00D17DE6E4E72300D6331B78EB
:104A1000012B09D0032B09D0002B03D1E379002B04
:104A200000D073E67C4ED5E7237AF8E7631CDB7F82
:104A3000002BF7D02B6841331B78012BF2D165E6B0
:104A40002300D4331F7821003800FFF7C5FA00286F
:104A500015D12300D53303931B78042B0FD82100E5
:104A6000380005AAFFF730FB002808D1039B059A00
:104A70001B78DA401300694A934200D852E7684E27
:104A8000A8E7237A002B00D159E7A37C002B20D183
:104A9000E37C002B2FD1634E9CE7237F002B00D1BA
:104AA0004DE72300D6331B78012BEAD0032B04D02B
:104AB000002B00D043E7E379E4E7631CDB7F002BA6
:104AC00000D13CE72B6841331B78012B00D036E73F
:104AD000DBE7637D002B01D1534E7BE72000FFF71E
:104AE000A3FB2300A2331978013102F073FE4B4B74
:104AF0009842CDD9F0E7637D002BCCD02000FFF7A2
:104B000093FBB042C7D82700A3373978013102F0B0
:104B100061FE2379002B0AD0444B9842BBD8A37F77
:104B2000002B06D1237D002B38D1414E52E7374B65
:104B3000F3E72300D8331B88012B09D02BD93D4A3A
:104B4000934205D002213C4AFF311A408A4202D1E9
:104B5000627D002A01D1394E3CE70222FF32022554
:104B6000934208D0334A6D19934204D0344A033D2E
:104B7000934200D107352000FFF756FB2300DA33BC
:104B80001978013102F026FE290002F023FE234BA2
:104B90009842C7D9DFE701252A48EFE7E37C002BDD
:104BA000C3D02000FFF740FBB04200D973E739784B
:104BB000E61C013102F00EFE2300A43303931978A2
:104BC000251D013102F006FE104B9842ADD896210A
:104BD000002001F0D1FD2378002B51D06378002B09
:104BE00038D0F07F01282FD9631DDB7F002B39D10E
:104BF00002F0F4FA38E0C0468E0F1A01F40B0E08EA
:104C0000580F1A01560F1A01570F1A0100E1F50546
:104C100000AB8704BE0F1A01AF0F1A010084D7172B
:104C20008F0F1A018C0F1A018D0F1A0140787D0128
:104C30008B0F1A0101020000FFFDFFFF890F1A010F
:104C40000103000000127A0002F022FB0028CBD002
:104C5000AA4EBFE6E87F022801D00528C4D102F0A1
:104C600077FBF3E702F08AFA0028F1D102F00AFCA0
:104C7000A378002B02D102F0F3FB01E002F0E0FB8D
:104C80009F4D2B6841331B78012B09D100F048FE62
:104C9000631CDB7F002867D0002B01D100F04AFEA7
:104CA000984B08221968237A0E001640114262D0F0
:104CB000002B04D17B2001F00BFD00F0EDFD237FE4
:104CC000002B0ED02300D6331E7800F0B5FC8642B0
:104CD00007D002F0F1FB002800D04DE3300000F0D7
:104CE00097FC00F0BDFE637902286BD1002B01D147
:104CF00000F0A4FEA379002B0ED0E06C002808D0B1
:104D0000230054331B7808220093216D0023FDF704
:104D1000CDF9A06C00F080FEA37C002B04D0230012
:104D2000A233187800F0B6FCE37C002B02D0387870
:104D300000F08CFC237D002B03D0039B187800F03F
:104D400061FB2700122296373B88FF32934274D1D1
:104D50002300A533197800296FD1012000F07CFFD2
:104D6000002858D0684E35E6002B99D002F082FC1E
:104D700000F0BAFD94E7002BA1D002F07BFCA06DFF
:104D800000280FD0E36D002B0CD033003200216ED1
:104D90000096FDF78BF933003200616EE06D0096EE
:104DA000FDF784F9230056331878002800D001203D
:104DB00000F082FD554800F04BFD002800D17EE751
:104DC000534E07E6002B95D002F054FCA06B002850
:104DD00010D0E36B002B0DD00026216C3300320085
:104DE0000096FDF763F933003200616CE06B0096CA
:104DF000FDF75CF9636B226BE16AA06A00F03EFE8E
:104E0000002801D0434EE5E5434800F0E1FE0028CC
:104E100000D16FE7F6E7012100F0ACFC00280AD1D1
:104E2000237B002B12D00020398800F015FF0028CA
:104E30000CD03A4ECEE53A4ECCE523009833012013
:104E4000198800F009FF0028EAD08BE7A37B002B2C
:104E500009D023009A330220198800F0FDFE0028B3
:104E600001D0304EB6E5E37B002B1AD1237C002B1A
:104E700026D1637C002B32D100F076FF00285BD076
:104E800001F0AEFA637A0600002B04D02000FFF791
:104E90000DFA864253D000F079FF00284CD0224E04
:104EA00098E52B683E331B78032BDFD923009C3316
:104EB0000320198800F0D0FE0028D7D01B4E89E5CA
:104EC0002B683E331B78042BD3D923009E33042058
:104ED000198800F0C1FE0028CBD0154E7AE52B686A
:104EE0003E331B78052BC7D92300A0330520198832
:104EF00000F0B2FE0028BFD00E4E6BE56F0F1A0116
:104F0000B8040E08000027404E0F1A0140420F005F
:104F10005A0F1A015F0F1A01B80B00004F0F1A0148
:104F20000F0F1A014D0F1A013F0F1A014C0F1A01F2
:104F30004B0F1A014A0F1A01637A002B20D000F0A0
:104F400013FF00281CD102F095FB2300E16E78339B
:104F50001A8802331B780591216F05A80691616FAD
:104F600007918373230082817C331B88038200F0C6
:104F700031FF002893D1C34800F0BCFF00288ED138
:104F80002300A53303930020197800F0F3FB0028D9
:104F900000D050E72300A633197800F01DFC061E50
:104FA00000D048E712223B88FF32934276D02B682C
:104FB0003F331B78002B58D0012000F0FFFF002862
:104FC0007ED1A37A002B21D0012000F0F7FF00282A
:104FD0001CD1230084331B7805AF3B70230085333D
:104FE0001B787B70230086331B78BB7023008733CC
:104FF0001B78FB70230088331B783B7102F03AFB6F
:1050000039000120FFF72AF900286FD12B683F33C0
:105010001B78012B29D9022000F0D0FF002867D18E
:10502000E37A002B21D0022000F0C8FF00281CD119
:10503000230090331B7805AF3B70230091331B781E
:105040007B70230092331B78BB70230093331B7853
:10505000FB70230094331B783B7102F00BFB39008B
:105060000220FFF7FBF8002856D1012000F04EFB8C
:10507000A37D002859D0002B50D0022000F046FB21
:10508000E37D00285CD1002B5CD02300B5331A7877
:10509000013B19780220FFF7F3F86AE0039B1B78C5
:1050A000002B84D1637B002B00D15BE62300983377
:1050B0000120198800F0D0FD002800D177E751E6E3
:1050C000012001F0D1F9A37A0700002B06D02100BE
:1050D0000120FFF709F9874200D175E702F0CAFA0B
:1050E000012000F07FFF002800D16AE7664E71E4DE
:1050F000022001F0B9F9E37A0700002B05D0210066
:105100000220FFF7F1F887428DD002F0B3FA0220B7
:1051100000F068FF002883D05C4E5BE4012000F0C3
:1051200007FB0028A9D05A4E54E4002BA5D0230039
:10513000AD331A78013B19780120FFF7A1F8F0E7A9
:10514000002B13D02B6840331B78032B15D9032079
:1051500000F0DCFA237E002824D0002B0DD10320A0
:1051600000F0E6FA002808D04A4E33E4022000F0AE
:10517000DFFA0028E6D0484E2CE42B6840331B7839
:10518000042B1AD9042000F0C1FA637E00282FD026
:10519000002B12D1042000F0CBFA00280DD03F4E96
:1051A000FFF718FC002BE8D02300BD331A78013B31
:1051B00019780320FFF764F8D4E72B6840331B7895
:1051C000052B20D800F008FAA37F002836D1002B49
:1051D00038D02300D8331F889D7800F007FA3800B4
:1051E00000F0B4F9280000F0CBF900F0E1F929E073
:1051F000002BE2D02300C5331A78013B1978042034
:10520000FFF73EF8C9E7052000F080FAA37E0028EA
:1052100009D0002BD6D1052000F08AFA0028D1D081
:105220001F4EFFF7D7FB002BCCD02300CD331A78CD
:10523000013B19780520FFF723F8EFE7002B01D198
:1052400000F0D4F900F04CF9E37E00282ED0002BBA
:1052500001D100F04FF9637F002B04D02300D73336
:10526000187800F05BF923000E4F55331D783B781A
:10527000AB4230D002F020F9002828D00A4EFFF7C8
:10528000A9FBC046400D03002F0F1A012E0F1A0173
:105290009E0F1A019C0F1A019D0F1A019B0F1A01F4
:1052A0009A0F1A01F80B0E085C0F1A01002BD2D0CE
:1052B0002300D4331F785D7800F01CF9380000F02B
:1052C000C9F8280000F0E0F800F0F8F8C3E728007B
:1052D00000F08EFB3D7000F061FBE379002820D0E8
:1052E000002B0ED1A32001F0F3F900F057FB0028AA
:1052F00007D002F0E1F80028C0D100F059FB0028E7
:10530000BCD12378002B08D0637D002B05D023006F
:10531000A8332079196801F02FFA02F0ABF9FFF7F2
:1053200059FB002BEDD000F039FB0028E9D102F049
:10533000C3F80028A2D100F01DFBE2E7104EFFF7F2
:1053400049FB104EFFF746FB0F4EFFF743FB0F4E96
:10535000FFF740FB0E4EFFF73DFB0E4EFFF73AFB0B
:105360000D4EFFF737FB0D4EFFF734FB0C4EFFF7EA
:1053700031FB0C4EFFF72EFB0B4EFFF72BFBC0460D
:10538000FE0F1A01EF0F1A01EE0F1A01DF0F1A01BB
:10539000DE0F1A01DD0F1A01DC0F1A01DB0F1A01F3
:1053A000DA0F1A01CF0F1A011F0F1A017047704749
:1053B000F0230A041B0330B51A400F240B002340CE
:1053C0001A43084B1D68830228691B188020C001FE
:1053D0001A5018582040401A431E98410249404232
:1053E000084030BDB8040E080300C200044B103062
:1053F0001B6880021B69C0580F2318407047C046C5
:10540000B8040E0810B50200040000232B21072069
:10541000FEF786FD064B07481B68240219008831F9
:105420001A680B68D218136803401C43146010BD3F
:10543000B8040E08FF00FFFF054B1B681A008832F6
:105440001B6812689B181868000AC0B27047C046F3
:10545000B8040E0810B50200040000231F21072025
:10546000FEF75EFDA023F021054ADB0009012402BE
:10547000D0580C40034908400443D45010BDC046E6
:1054800000002640FFF0FFFF10B5020004000023DB
:1054900020210720FEF744FDA023E021054ADB0080
:1054A000C9012403D0580C40034908400443D45098
:1054B00010BDC04600002640FF8FFFFF00230122E1
:1054C000212110B50720FEF72BFDA02280230349E0
:1054D000D20088581B0203438B5010BD00002640A9
:1054E000A023034ADB00D0580004C00F7047C04619
:1054F00000002640002322211A0010B50720FEF7E5
:105500000FFDA0220349D2008B58034803408B5063
:1055100010BDC04600002640FF7FFFFF10B502000F
:105520000400002323210720FEF7FAFCC022054BCC
:105530009200240218681440034A104004431C607F
:1055400010BDC04600002740FFFCFFFF10B504005F
:10555000020000231B210720FEF7E2FC0449054A54
:1055600005488B580340054804401C438C5010BD2F
:105570000000264004050000FEFCFFFF01030000C0
:1055800010B50400020000231C210720FEF7C8FC10
:105590000449054A05488B58240403401C438C5099
:1055A00010BDC0460000264004050000FFFF00FFBC
:1055B000002301221D2110B50720FEF7B1FC802336
:1055C0000349044A1B06885803438B5010BDC0464C
:1055D0000000264004050000024A034BD058C00FCB
:1055E0007047C046000026400405000000231E212D
:1055F0001A0010B50720FEF793FC0349034A8B58A5
:105600005B005B088B5010BD0000264004050000C5
:1056100010B50200040000231A210720FEF780FCC9
:10562000A02203200349D2008B58044083431C432B
:105630008C5010BD00002640A023034ADB00D05848
:10564000032318407047C0460000264010B50200F2
:105650000400002319210720FEF762FC064B2406F4
:105660001B681A0088321B6812689B1818680002B1
:10567000000A2043186010BDB8040E08044B1B68D4
:105680001A0088321B6812689B181868000E704751
:10569000B8040E0810B502000400002318210720EA
:1056A000FEF73EFC064B07481B68240219008C31AC
:1056B0001A680B68D218136803401C43146010BDAD
:1056C000B8040E08FF00FFFF10B50D4B04001B6867
:1056D00040331B78834211D9020000231421072094
:1056E000FEF71EFC074BE022A400E41880230020F4
:1056F0009200A1581B060B43A35010BD0248FCE7C3
:10570000B8040E080000264001004A00064A0300C3
:1057100012680020403212789A4204D9034AE033DA
:105720009B009858C00F7047B8040E080000264030
:1057300010B5041E16D00C4B1B6840331B788342F7
:1057400010D90200002315210720FEF7E9FBE02213
:105750000020064BA400E4189200A3585B005B08ED
:10576000A35010BD0248FCE7B8040E080000264014
:1057700001004A0037B5104B04001B680D00403390
:105780001B78834216D90F2914D86B466A461971C3
:105790000090002316210720FEF7C2FB074BA40050
:1057A000E418E0230F2200209B00E1589143294395
:1057B000E1503EBD0248FCE7B8040E080000264058
:1057C00001004A00034BE0308000C0580F2318400E
:1057D0007047C0460000264037B5114B04001B68D7
:1057E0000D0040331B78834217D9032915D86B4627
:1057F0006A4619710090002317210720FEF790FBDD
:10580000E02230210020074BA400E4189200A358A6
:105810002D018B431D43A5503EBD0348FCE7C04608
:10582000B8040E080000264001004A00034BE03097
:105830008000C0588006800F7047C0460000264098
:10584000024B18694007C00F7047C0460000274050
:1058500002000023112110B504000720FEF760FBB1
:1058600008230B4A11680B431360FFF7E9FF002878
:1058700008D1002C01D1074810BD012000F028FFFD
:10588000013CF2E763425C416042024C2040F3E796
:105890000000274002004A00002312211A0010B520
:1058A0000720FEF73DFB0821024A13688B43136073
:1058B00010BDC0460000274010B5020004000023C0
:1058C00013210720FEF72CFB8022054B52022404F3
:1058D00018681440034A104004431C6010BDC046C1
:1058E00000002740FFFFFEFF70B50E2100230122BC
:1058F0000720FEF715FB8023074D084C1B062A598D
:10590000012013432B5100F0CBFEC0232A59DB05A5
:1059100013432B5170BDC046000026403C050000DB
:10592000024A034BD0588000C00F70470000264049
:105930003C05000000230F211A0010B50720FEF7D8
:10594000EFFA0349034A8B58DB00DB088B5010BD8C
:10595000000026403C0500000449054A80058B589C
:10596000800D9B0A9B0203438B507047000026402A
:105970003C050000002301220B2110B50720FEF793
:10598000CFFA80230349044A1B06885803438B50EF
:1059900010BDC046000026400C050000024A034B23
:1059A000D058C00F7047C046000026400C050000CC
:1059B00000230C211A00072010B5FEF7B1FAC0230E
:1059C000084A5B00D158803B0800FF3B1840194251
:1059D00005D1054953585B005B08535010BD03487F
:1059E000FCE7C046000026400C05000003004A000A
:1059F00010B50200040000230D210720FEF790FAE5
:105A00000121034A034BD05888432043D05010BD96
:105A1000000026400C050000064B10B5040098421B
:105A200007D8002302002E210720FEF779FA024B47
:105A30001C6010BD00E1F505040C0E0800230821D0
:105A40001A0010B50720FEF76BFA0349034A8B587A
:105A50005B005B088B5010BD000026402C05000049
:105A6000A6220549D2008B580220DB439B0702D0B7
:105A7000012388581840704700002640F0B587B0D1
:105A8000029003910492059306000C0015001F007C
:105A900024210023072002AAFEF742FA00900028E2
:105AA00001D13A4B1E603A4B3A4A9B58002B6ADBB5
:105AB000394B3A4AF318934262D8631E632B5FD87E
:105AC000FA216B1E89008B425AD2FA227B1ED20029
:105AD000934255D23000F530FF3001F07BFE01904B
:105AE0002F48290047436808381801F073FE8022C8
:105AF0008446102300201202010011430F004F437F
:105B0000BC4500D30800013B5208002BF4D1019999
:105B1000244B614358434B08C01801F05BFE224BF5
:105B200098422DD90198214B40432149C01801F0DA
:105B300051FE644360436421323001F04BFE454323
:105B40001C4B9D421CD828001B4901F043FE1B4BF7
:105B50009D4202D80138431E98410D4C184A1949FC
:105B6000A35800030B401843174B0A49184302235C
:105B7000A050625813436350044B1E6000230093EF
:105B8000009807B0F0BD114BF9E7C046080C0E08AD
:105B9000000026402C05000000DC0BFFC0EA2101BC
:105BA00080841E00B36D0200890200005DF70000D2
:105BB000BBEE01007FEE3600A0BB0D003F771B005F
:105BC00020FF000008C0FFFFF703000003004A00A9
:105BD000F8B5174D174E00230200040025210720B9
:105BE000FEF79EF9AB59002B1FDB80232700AA5933
:105BF0001B061343AB51FFF733FF022809D0002FD8
:105C000002D1002C0FD009E0012000F061FD013F1E
:105C1000F1E7002C07D00024A74204D1AB59064C71
:105C20005B005B08AB512000F8BD044CFBE7C046AD
:105C3000000026402C05000002004A0003004A0034
:105C400010B5FFF70DFF0023022801D1014B1B689F
:105C5000180010BD080C0E0837B5174B04001B6860
:105C60000D003E331B78834224D9042903D94B1EEF
:105C7000FF3B132B1ED86B466A469D8026210023CE
:105C800007200094FEF74CF9FF2D0CD90B4BA40014
:105C9000E4181F21C02304229B000D40E55040332F
:105CA000E25000203EBD0721044BD0340D40A4003B
:105CB000E550F6E70248F5E7B8040E080000264074
:105CC00001004A00094A83009B18D022920098588C
:105CD00007221040042807D1C022920098581F23A1
:105CE00003408020400018437047C0460000264013
:105CF00010B5FFF7E7FF88235B0098421AD009D858
:105D0000012811D0022812D043425841114B404281
:105D1000184010BD1223FF33984213D01423FF33D1
:105D2000984214D00020F4E70B4B1868F1E7FFF716
:105D300087FFEEE7094A0A4BD358002BF2DA80209E
:105D40000002E6E7FFF77CFD0028EBD0F7E7034A07
:105D5000044BF1E700127A00040C0E080000264004
:105D60000C0500003C050000B023024ADB00D058BF
:105D7000C00F704700002640B223034ADB00D05812
:105D8000012318407047C046000026400023092127
:105D90001A0010B50720FEF7C3F8B1200A4BC00067
:105DA0001A580A491140802292050A43B0211A501C
:105DB000C9005A580020520052085A5004495A58F3
:105DC000520052085A5010BD00002640FFFFFFCF7E
:105DD0008C0500000200002370B527210400072075
:105DE000FEF79EF8B020224AC0001358002B3DDB7E
:105DF000E17923684D1EA9419B0309069B0B0B43C8
:105E000013502389A0881B491B04C0040B40C00CFD
:105E100003431948194D1350FF20E37AE0261B0174
:105E20000340A089F600000228400F250343A07A12
:105E30002840C0250343A07BAD050007284003434D
:105E4000B120C0001350A3790D481B0215583340F0
:105E50000C4E35402B431350238A15581B040B401E
:105E6000094929400B431350002070BD0748FCE747
:105E7000000026400000FF018405000000FF1F0015
:105E80008C050000FFF8FFFFFFFF00FE03004A0043
:105E9000B023154ADB00D35810B59903DB01DB0FA3
:105EA000890BC371114B0160D3580F24D904DB0156
:105EB000DB0D0381B123DB00D358C90C81801900AD
:105EC0002140817219092140C172D9029B009B0FA8
:105ED0008373074BC90CD35881815A05DB01520FDC
